:100000000C9475000C9487000C9487000C94870066
:100010000C9487000C9487000C9487000C94870044
:100020000C9487000C9487000C9487000C94870034
:100030000C9487000C9487000C9487000C94870024
:100040000C9489000C9487000C9487000C94870012
:100050000C9487000C9487000C9487000C94870004
:100060000C9487000C9487000000000024002700F7
:100070002A002D00330000000000250028002B007E
:100080002E003400040404040404040402020202E6
:100090000202030303030303050502030605050229
:1000A0000305050505060606060606060102040800
:1000B00010204080010204081020010204081020D2
:1000C00002084080014080804001041020020408A2
:1000D00010204080000000085002010000030407C7
:1000E0000000000000000000000011241FBECFEF40
:1000F000D8E0DEBFCDBF21E0A0E0B1E001C01D929D
:10010000AF30B207E1F70E94CF000C94FD010C94D0
:1001100000001F920F920FB60F9211242F933F935E
:100120008F939F93AF93BF938091050190910601A8
:10013000A0910701B09108013091040120E4230F40
:100140002D3728F023EC230F0196A11DB11D20931C
:1001500004018093050190930601A0930701B093D9
:1001600008018091000190910101A0910201B091DC
:1001700003010196A11DB11D80930001909301011F
:10018000A0930201B0930301BF91AF919F918F9112
:100190003F912F910F900FBE0F901F901895809157
:1001A000F20080618EBB80E88093F2009EB3909352
:1001B000F2008093610091E0909361008093610070
:1001C00010926100789484B5826084BD84B58160AA
:1001D00084BD85B5826085BD85B5816085BD809112
:1001E0006E00816080936E0010928100809181008A
:1001F0008260809381008091810081608093810082
:10020000809180008160809380008091B100846043
:100210008093B1008091B00081608093B0008091A4
:100220009100826080939100809191008160809321
:1002300091008091900081608093900080917A007D
:10024000846080937A0080917A00826080937A0043
:1002500080917A00816080937A0080917A00806832
:1002600080937A001092C100C9EBD0E0FE01249186
:1002700001E910E0F8018491882399F090E0880F5B
:10028000991FFC01E859FF4FA591B491FC01EA5870
:10029000FF4F859194918FB7F8949C91292B2C93C3
:1002A0008FBF91EEC92E90E0D92E20E0E22E20E003
:1002B000F22EAA24A394B12C2FB7F89480910501B3
:1002C00090910601A0910701B09108012FBF4091C4
:1002D0000B0150910C0160910D0170910E013C01D8
:1002E0004D01641A750A860A970AB401A3014C32BB
:1002F00051406105710508F44EC080930B01909345
:100300000C01A0930D01B0930E0180910901909111
:100310000A01892B29F5B0920A01A0920901F60180
:100320009491FE012491F8018491882309F433C04B
:10033000309109019923F1F091509B30D8F4E92FC5
:10034000F0E0EB55FE4F0C94F701D601DA01B50150
:10035000D201BA01BA01DD01E301E701ED01F101CA
:1003600010920A0110920901DACF909180009F77D4
:1003700090938000E82FF0E0EE0FFF1FEA58FF4F48
:10038000A591B4918FB7F8949C9131112EC020950E
:1003900029232C938FBFE114F10409F48DCF0E941F
:1003A00000008ACF909180009F7DE2CF94B59F7727
:1003B00094BDE0CF94B59F7DFBCF9091B0009F7727
:1003C0009093B000D7CF9091B0009F7DF9CF9091DE
:1003D00090009F7790939000CDCF909190009F7D5B
:1003E000F9CF90919000977FF5CF292BD2CFEE0FC8
:0E03F000FF1F0590F491E02D0994F894FFCFC3
:00000001FF
